:030000000200BB40
:0C00BB00787FE4F6D8FD75811702010281
:0A000E00C0F9A4B0999282F8809026
:100244000408FBF7EFDF020D038401130002110021
:0802540001020F0000010CFF84
:10001E00758911758C3C758AAF758D29758B27D2B4
:10002E00AFD2A9D28CD28ED2ABE50C607A25E0F598
:10003E000CF590E513C394045062AE11AF127C0020
:10004E007D0A1201BAAC0DAD0ECFCDCFCECCCE12F5
:10005E0001CCAE11AF12CFCDCFCECCCE1201CC8E05
:10006E000F8F1075B0FF74082513F8E6F5B0E51084
:10007E0090000E93F5A0AE11AF127C007D0A120116
:10008E00BA8E118F1205137A037BE8D3EB9400EA34
:10009E009400409F00EB1B70F21A80EF75110075F3
:0D00AE001201E4F5138082750CFF0200378B
:03000B00020147A8
:10014700C0E0C0F0C0D075D000C000C004C005C07A
:1001570006C007C28C758C3C758AAF0517E517700A
:10016700020516641445167037F516F517050EE5E2
:100177000E7002050DAE0DFF7C007D641201CCED03
:10018700643C4C700B7428250EF50EE4350DF50D07
:10019700E50EB4600BE50DB40906750D00750E008C
:1001A700D28CD007D006D005D004D000D0D0D0F064
:0301B700D0E03263
:03001B00020221BD
:10022100C0E0C28E758D15758B9F0515E5157002A1
:100231000514640A45147006F514F515B2B7D28E8B
:03024100D0E032D8
:1000C70002001EE493A3F8E493A34003F68001F231
:1000D70008DFF48029E493A3F85407240CC8C3333A
:1000E700C4540F4420C8834004F456800146F6DF09
:1000F700E4800B0102040810204080900244E47E53
:10010700019360BCA3FF543F30E509541FFEE493FD
:10011700A360010ECF54C025E060A840B8E493A3C4
:10012700FAE493A3F8E493A3C8C582C8CAC583CAEF
:10013700F0A3C8C582C8CAC583CADFE9DEE780BEA7
:01025C0000A1
:1001BA00EF8DF0A4A8F0CF8CF0A428CE8DF0A42E59
:0201CA00FE2213
:1001CC00BC000BBE0029EF8DF084FFADF022E4CC17
:1001DC00F875F008EF2FFFEE33FEEC33FCEE9DECE0
:1001EC00984005FCEE9DFE0FD5F0E9E4CEFD22ED26
:1001FC00F8F5F0EE8420D21CFEADF075F008EF2F70
:10020C00FFED33FD4007985006D5F0F222C398FD60
:05021C000FD5F0EA22FD
:00000001FF
